:1000000017C03BC03AC074C138C037C036C035C015
:1000100034C033C032C00CC530C0FBC42EC02DC0AC
:100020002CC02BC02AC04500E90106026A023E032B
:1000300011241FBECFE5D4E0DEBFCDBF10E0A0E6A7
:10004000B0E0E8EAFAE002C005900D92A039B107ED
:10005000D9F710E0A0E9B0E001C01D92A43CB107BF
:10006000E1F710E0C0E3D0E003C02297FE0116D50F
:10007000C632D107D1F702D015C5C2CF02D020D0E9
:10008000FFCF85B7806885BF089580E990E019D3D8
:1000900081E990E0B1D182E990E061E0F9D183E9B2
:1000A00090E060E0F5D184E990E061E091D285E9EB
:1000B00090E062E08DD286E990E062E3DED00895C0
:1000C00040916400509165006091660070916700F6
:1000D00086E990E0DBD04091600050916100609132
:1000E00062007091630086E990E0D0D086E990E0EC
:1000F000DFD081B58A6081BDA8958895FDCF80E964
:1001000090E067E970E0D5D2089590919700953519
:1001100009F46EC09635B8F4963499F1973450F4DA
:10012000903308F484C09A3308F478C0923409F00C
:100130007EC02DC09235F1F1933509F447C09C344F
:1001400009F075C031C0913709F46EC0923750F490
:10015000973509F447C0973508F452C0983509F02F
:1001600066C056C0963709F44FC0973720F49537CC
:1001700009F05DC041C09737C1F1983709F057C009
:1001800049C084E990E060919A0041E018C084E998
:1001900090E060919A0042E0D4D185E990E06091CE
:1001A0009A0042E0CED143C084E990E060919A0089
:1001B00041E011C084E990E060919A0043E0C1D130
:1001C00085E990E060919A0041E0ECCF84E990E00D
:1001D00060919A0043E0B5D185E990E060919A0082
:1001E00043E0E0CF82E990E005C082E990E006C0FC
:1001F00083E990E03CD11BC083E990E027D117C090
:1002000081E990E0F4D013C081E990E0EBD00FC019
:1002100081E001C082E08093980009C087E1989F47
:10022000C0011124805501C08FEF80939A00809106
:100230009800813069F4809199008F5F80939900D4
:10024000843178F083E990E0F2D01092990009C0EF
:10025000823039F483E990E0F9D01092990010923D
:10026000980010929700089588E085BD70E0660FB1
:10027000771F660F771F63BD089588E085BD70E026
:10028000660F771F660F771F63BD089580919F00EB
:10029000E82FF0E0EE0FFF1FEE0FFF1FE056FF4FBD
:1002A00040835183628373838F5F80939F0008959F
:1002B0008FB780688FBF89B7806889BF85B5876031
:1002C00085BD0895E82FF0E0EE0FFF1FEE0FFF1F32
:1002D000E056FF4F82E083830895E82FF0E0EE0FB1
:1002E000FF1FEE0FFF1FE056FF4F81E0838308954D
:1002F0001F920F920FB60F921124EF92FF920F935D
:100300001F932F933F934F935F936F937F938F939D
:100310009F93AF93BF93EF93FF93E0909B00F09078
:100320009C0000919D0010919E000894E11CF11C1E
:10033000011D111DE0929B00F0929C0000939D0016
:1003400010939E0080919F00823071F58091A300F0
:10035000813051F52091A20030E040E050E0C8012A
:10036000B70178D3611571058105910529F4E091F4
:10037000A000F091A10009952091A60030E040E096
:1003800050E060919B0070919C0080919D00909145
:100390009E0060D3611571058105910529F4E091F6
:1003A000A400F091A5000995FF91EF91BF91AF9145
:1003B0009F918F917F916F915F914F913F912F917D
:1003C0001F910F91FF90EF900F900FBE0F901F9015
:1003D000189590916900809168008093A80090938F
:1003E000A900089588EA90E060E0DED1089588EAE7
:1003F00090E061E0D9D1089588EA90E060E073D19F
:10040000089588EA90E060E06ED1089590916B00C5
:1004100080916A008093AA009093AB0090916D0048
:1004200080916C008093AC009093AD000895FC0126
:10043000E081EE2319F0E13041F404C08AEA90E053
:10044000E5D108958CEA90E0E1D10895FC01E081C6
:10045000EE2319F0E13051F405C08AEA90E060E043
:10046000A3D108958CEA90E060E09ED10895FC014C
:10047000E081EE2319F0E13051F405C08AEA90E002
:1004800061E092D108958CEA90E061E08DD1089509
:10049000FC016083662319F0613051F405C08AEADB
:1004A00090E060E020D108958CEA90E060E01BD1FC
:1004B0000895FC016083662319F0613051F405C092
:1004C0008AEA90E060E00FD108958CEA90E060E065
:1004D0000AD108958EEA90E060916E00F7D18FEA1C
:1004E00090E060917400F2D19091700080916F0063
:1004F0008093B0009093B100909176008091750048
:100500008093B2009093B30090917100809172003B
:100510009093B4008093B500809173009093B600DF
:100520008093B70090917700809178009093B80005
:100530008093B900809179009093BA008093BB00BA
:1005400008951F93FC01162FE081E13019F0E2308D
:10055000E9F51DC0423041F0433071F04130A1F463
:1005600084EB90E061E00BC084EB90E060E01CD194
:1005700086EB90E061E007C084EB90E060E014D18E
:1005800086EB90E060E010D18EEA90E01CC0423033
:1005900041F0433071F04130A1F488EB90E061E02C
:1005A0000BC088EB90E060E0FFD08AEB90E061E068
:1005B00007C088EB90E060E0F7D08AEB90E060E065
:1005C000F3D08FEA90E062E0412FAAD11F91089505
:1005D000FC016083613019F0623021F512C080EBBC
:1005E00090E060E080D084EB90E060E07CD086EB2F
:1005F00090E060E078D08EEA90E062E040E090D158
:10060000089582EB90E060E06ED088EB90E060E0CF
:100610006AD08AEB90E060E066D08FEA90E062E01A
:1006200040E07ED10895FC016083613019F06230B2
:1006300021F512C080EB90E060E055D084EB90E0B3
:1006400060E051D086EB90E060E04DD08EEA90E023
:1006500062E040E065D1089582EB90E060E043D035
:1006600088EB90E060E03FD08AEB90E060E03BD028
:100670008FEA90E062E040E053D1089580917A00E3
:1006800090917B008093BC009093BD0090917C0082
:100690008093BE009093BF0080EC90E069E170E031
:1006A00040E07DD181EC90E069E170E040E877D1F5
:1006B000089581EC90E0A2D1089580EC90E090D173
:1006C00008958CEB90E061E00ED08EEB90E060E05E
:1006D0000AD008958CEB90E061E005D08EEB90E0BD
:1006E00060E001D00895DC016130D9F0613020F084
:1006F000623009F058C02CC0EC91F0E0EE0FFF1F03
:10070000E358FF4F0190F081E02D81E090E01196D9
:100710000C9002C0880F991F0A94E2F72081282BC1
:1007200015C0EC91F0E0EE0FFF1FE358FF4F019072
:10073000F081E02D81E090E011960C9002C0880FCE
:10074000991F0A94E2F78095208128232083089539
:10075000EC91F0E0EE0FFF1FE358FF4F0190F081A6
:10076000E02D41E050E0CA0111960C90119702C0B3
:10077000880F991F0A94E2F780952081282320830F
:10078000EC91F0E0EE0FFF1FED57FF4F0190F0816D
:10079000E02D11960C9002C0440F551F0A94E2F709
:1007A0008081842B80830895DC016623C1F0613051
:1007B00061F5EC91F0E0EE0FFF1FED57FF4F019058
:1007C000F081E02D81E090E011960C9002C0880F3E
:1007D000991F0A94E2F72081282B20830895EC9139
:1007E000F0E0EE0FFF1FED57FF4F0190F081E02D7D
:1007F00081E090E011960C9002C0880F991F0A9436
:10080000E2F780952081282320830895DC01EC9174
:10081000F0E0EE0FFF1FED57FF4F0190F081E02D4C
:1008200081E090E011960C9002C0880F991F0A9405
:10083000E2F72081282720830895CF93DF93DC01FE
:10084000EB01EC91F0E0EE0FFF1FE757FF4F019037
:10085000F081E02D808190E011960C9002C095957A
:1008600087950A94E2F780FF03C081E0888301C086
:100870001882DF91CF910895FC016083613099F077
:10088000613018F0623009F51CC08EB59FB59F73BA
:100890009FBD8EBD8EB59FB5826091689FBD8EBD98
:1008A0001BBC1ABC08958EB59FB59F7C9FBD8EBDA5
:1008B0008EB59FB5826091629FBD8EBD19BC18BC7C
:1008C000089585B5826685BD13BC0895FC016083DB
:1008D000613099F0613018F0623009F51CC08EB5B6
:1008E0009FB59F739FBD8EBD8EB59FB58260916889
:1008F0009FBD8EBD1BBC1ABC08958EB59FB59F7C55
:100900009FBD8EBD8EB59FB5826091629FBD8EBD2D
:1009100019BC18BC089585B5826685BD13BC0895C1
:10092000FC01E081E130B9F0E13018F0E23061F52E
:1009300024C08EB59FB5887F9FBD8EBD2EB53FB5B7
:10094000862F90E0822B932B9FBD8EBD842F90E04D
:100950009BBD8ABD08958EB59FB5887F9FBD8EBD16
:100960002EB53FB5862F90E0822B932B9FBD8EBD79
:10097000842F90E099BD88BD089585B5887F85BD99
:1009800085B5862B85BD43BD089588E18AB98AB1B6
:10099000842B8AB986E880BD70BD69B9089588E165
:1009A0008AB98AB1842B8AB986E880BD70BD69B9DD
:1009B00008955D9B05C06CB900B406FEFDCF5E9A3C
:1009C0000895FB010AC05D9B07C080818CB900B40B
:1009D00006FEFDCF5E9A319641504423A1F708955B
:1009E000FB015F9B02C08CB18083089580918F00D2
:1009F000813019F410928F006CB90895FB01809139
:100A0000C300813029F41092C3008091C20080831A
:100A100008951F920F920FB60F9211248F9381E0C9
:100A200080938F008F910F900FBE0F901F9018959D
:100A30001F920F920FB60F9211248F938CB1809357
:100A4000C20081E08093C3008F910F900FBE0F9082
:100A50001F901895A1E21A2EAA1BBB1BFD010DC009
:100A6000AA1FBB1FEE1FFF1FA217B307E407F5075E
:100A700020F0A21BB30BE40BF50B661F771F881F3A
:100A8000991F1A9469F760957095809590959B01D0
:100A9000AC01BD01CF010895EE0FFF1F0590F49149
:080AA000E02D0994F894FFCF4A
:100AA800850001017F000101010501020103000029
:100AB80001020203010002020405020001370034AA
:100AC80000310038003500320036003300300001B4
:00000001FF
