:1000000017C03BC03AC039C038C037C036C035C051
:1000100034C033C032C006C430C0F5C32EC02DC0BA
:100020002CC02BC02AC04300E30000016401380249
:1000300011241FBECFE5D4E0DEBFCDBF10E0A0E6A7
:10004000B0E0E8E5F8E002C005900D92A838B107ED
:10005000D9F710E0A8E8B0E001C01D92AC3AB107B2
:10006000E1F710E0C0E3D0E003C02297FE01EED339
:10007000C632D107D1F702D0EDC3C2CF03D09DD095
:1000800019D0FDCF089588E890E015D289E890E076
:10009000ADD08AE890E061E0F5D08BE890E060E0D8
:1000A000F1D08CE890E061E08DD18DE890E062E0E5
:1000B00089D1089590918E00933509F450C09435FC
:1000C00090F4923469F1933430F4892F80538A305C
:1000D00008F070C066C09C3481F19235A1F196346D
:1000E00009F068C017C0913709F461C0923748F42D
:1000F000963509F44EC09735F1F1953509F05AC09F
:1001000040C0963709F449C09737C1F1953709F0D7
:1001100051C03BC08CE890E060918F0041E018C076
:100120008CE890E060918F0042E005D18DE890E08E
:1001300060918F0042E0FFD03DC08CE890E060917C
:100140008F0041E011C08CE890E060918F0043E0A7
:10015000F2D08DE890E060918F0041E0ECCF8CE828
:1001600090E060918F0043E0E6D08DE890E06091F0
:100170008F0043E0E0CF8AE890E005C08AE890E095
:1001800006C08BE890E06DD015C08BE890E058D0A9
:1001900011C089E890E025D00DC089E890E01CD01E
:1001A00009C087E1989FC0011124805501C08FEFDD
:1001B00080938F0010928E00089588E890E06EE89A
:1001C00070E075D1089590916100809160008093F6
:1001D000900090939100089580E990E060E0DED176
:1001E000089580E990E061E0D9D1089580E990E038
:1001F00060E073D1089580E990E060E06ED10895E9
:10020000909163008091620080939200909393009C
:100210009091650080916400809394009093950084
:100220000895FC01E081EE2319F0E13041F404C0AF
:1002300082E990E0E5D1089584E990E0E1D1089564
:10024000FC01E081EE2319F0E13051F405C082E9B0
:1002500090E060E0A3D1089584E990E060E09ED151
:100260000895FC01E081EE2319F0E13051F405C05E
:1002700082E990E061E092D1089584E990E061E044
:100280008DD10895FC016083662319F0613051F42B
:1002900005C082E990E060E020D1089584E990E013
:1002A00060E01BD10895FC016083662319F0613082
:1002B00051F405C082E990E060E00FD1089584E92F
:1002C00090E060E00AD1089586E990E060916600D0
:1002D000F7D187E990E060916C00F2D190916800CD
:1002E00080916700809398009093990090916E00A0
:1002F00080916D0080939A0090939B00909169008B
:1003000080916A0090939C0080939D0080916B0087
:1003100090939E0080939F0090916F008091700059
:100320009093A0008093A100809171009093A2000F
:100330008093A30008951F93FC01162FE081E13004
:1003400019F0E230E9F51DC0423041F0433071F060
:100350004130A1F48CE990E061E00BC08CE990E0C1
:1003600060E01CD18EE990E061E007C08CE990E08C
:1003700060E014D18EE990E060E010D186E990E071
:100380001CC0423041F0433071F04130A1F480EAAA
:1003900090E061E00BC080EA90E060E0FFD082EA8C
:1003A00090E061E007C080EA90E060E0F7D082EA88
:1003B00090E060E0F3D087E990E062E0412FAAD1BD
:1003C0001F910895FC016083613019F0623021F5BE
:1003D00012C088E990E060E080D08CE990E060E0B5
:1003E0007CD08EE990E060E078D086E990E062E031
:1003F00040E090D108958AE990E060E06ED080EA14
:1004000090E060E06AD082EA90E060E066D087E940
:1004100090E062E040E07ED10895FC0160836130AD
:1004200019F0623021F512C088E990E060E055D003
:100430008CE990E060E051D08EE990E060E04DD032
:1004400086E990E062E040E065D108958AE990E0B5
:1004500060E043D080EA90E060E03FD082EA90E044
:1004600060E03BD087E990E062E040E053D108953E
:1004700080917200909173008093A4009093A500E6
:10048000909174008093A6009093A70088EA90E072
:1004900063E370E040E07DD189EA90E063E370E0DF
:1004A00040E877D1089589EA90E0A2D1089588EADA
:1004B00090E090D1089584EA90E061E00ED086EA61
:1004C00090E060E00AD0089584EA90E061E005D011
:1004D00086EA90E060E001D00895DC016130D9F057
:1004E000613020F0623009F058C02CC0EC91F0E08F
:1004F000EE0FFF1FEB58FF4F0190F081E02D81E0E0
:1005000090E011960C9002C0880F991F0A94E2F7B0
:100510002081282B15C0EC91F0E0EE0FFF1FEB5867
:10052000FF4F0190F081E02D81E090E011960C905A
:1005300002C0880F991F0A94E2F780952081282332
:1005400020830895EC91F0E0EE0FFF1FEB58FF4F72
:100550000190F081E02D41E050E0CA0111960C902D
:10056000119702C0880F991F0A94E2F780952081A5
:1005700028232083EC91F0E0EE0FFF1FE558FF4F9A
:100580000190F081E02D11960C9002C0440F551F90
:100590000A94E2F78081842B80830895DC0166232E
:1005A000C1F0613061F5EC91F0E0EE0FFF1FE5580E
:1005B000FF4F0190F081E02D81E090E011960C90CA
:1005C00002C0880F991F0A94E2F72081282B20830C
:1005D0000895EC91F0E0EE0FFF1FE558FF4F0190FA
:1005E000F081E02D81E090E011960C9002C0880F20
:1005F000991F0A94E2F7809520812823208308958B
:10060000DC01EC91F0E0EE0FFF1FE558FF4F019089
:10061000F081E02D81E090E011960C9002C0880FEF
:10062000991F0A94E2F72081282720830895CF9309
:10063000DF93DC01EB01EC91F0E0EE0FFF1FEF57D1
:10064000FF4F0190F081E02D808190E011960C9099
:1006500002C0959587950A94E2F780FF03C081E078
:10066000888301C01882DF91CF910895FC016083D7
:10067000613099F0613018F0623009F51CC08EB518
:100680009FB59F739FBD8EBD8EB59FB582609168EB
:100690009FBD8EBD1BBC1ABC08958EB59FB59F7CB7
:1006A0009FBD8EBD8EB59FB5826091629FBD8EBD90
:1006B00019BC18BC089585B5826685BD13BC089524
:1006C000FC016083613099F0613018F0623009F507
:1006D0001CC08EB59FB59F739FBD8EBD8EB59FB557
:1006E000826091689FBD8EBD1BBC1ABC08958EB5FB
:1006F0009FB59F7C9FBD8EBD8EB59FB58260916278
:100700009FBD8EBD19BC18BC089585B5826685BD98
:1007100013BC0895FC01E081E130B9F0E13018F03C
:10072000E23061F524C08EB59FB5887F9FBD8EBD38
:100730002EB53FB5862F90E0822B932B9FBD8EBDAB
:10074000842F90E09BBD8ABD08958EB59FB5887FAC
:100750009FBD8EBD2EB53FB5862F90E0822B932B8B
:100760009FBD8EBD842F90E099BD88BD089585B54D
:10077000887F85BD85B5862B85BD43BD089588E1FD
:100780008AB98AB1842B8AB986E880BD70BD69B9FF
:10079000089588E18AB98AB1842B8AB986E880BD38
:1007A00070BD69B908955D9B05C06CB900B406FEC3
:1007B000FDCF5E9A0895FB010AC05D9B07C0808152
:1007C0008CB900B406FEFDCF5E9A319641504423A9
:1007D000A1F70895FB015F9B02C08CB1808308954F
:1007E00080918700813019F4109287006CB90895C8
:1007F000FB018091AB00813029F41092AB00809115
:10080000AA00808308951F920F920FB60F921124B1
:100810008F9381E0809387008F910F900FBE0F9090
:100820001F9018951F920F920FB60F9211248F935D
:100830008CB18093AA0081E08093AB008F910F90E0
:100840000FBE0F901F901895EE0FFF1F0590F491AB
:08085000E02D0994F894FFCF9C
:100858000105010201030000010202030100020276
:100868000405020001370034003100380035003239
:080878000036003300300001DE
:00000001FF
